:020000040800F2
:1000000060C90120A10100085B460008F13F00081B
:1000100059460008BD1C0008DF4D00080000000024
:10002000000000000000000000000000534700082E
:10003000A11D000800000000514700088547000886
:10004000BB010008BB010008BB010008BB010008A0
:10005000BB010008BB010008BB010008BB01000890
:10006000BB010008BB010008BB010008BB01000880
:10007000BB010008BB010008BB010008C11C00084F
:10008000CD1C0008BB010008CD1A0008BB01000808
:10009000BB010008BB010008BB010008BB01000850
:1000A000BB010008BB010008BB010008BB01000840
:1000B000BB0100082D48000839480008BB010008B2
:1000C000BB010008BB010008BB010008BB01000820
:1000D000BB010008BB010008BB010008BB01000810
:1000E000BB010008BB010008BB010008BB01000800
:1000F000BB010008BB010008BB010008BB010008F0
:10010000BB010008BB010008BB010008BB010008DF
:10011000BB010008BB010008BB010008BB010008CF
:10012000D91C0008BB010008BB010008F11C000835
:10013000BB010008BB010008BB010008BB010008AF
:10014000BB010008BB010008BB010008BB0100089F
:10015000BB010008BB010008BB010008BB0100088F
:10016000BB010008BB010008BB010008BB0100087F
:10017000BB010008BB010008BB0100080000000033
:10018000BB010008BB010008DFF810D000F0AEFB97
:100190000048004781970008AFF3008060C9012044
:1001A0000648804706480047FEE7FEE7FEE7FEE711
:1001B000FEE7FEE7FEE7FEE7FEE7FEE71D48000874
:1001C000890100082DE9F05F0546002092469B4614
:1001D00088460646814640241BE02846414647465D
:1001E000224600F04CFA53465A46C01A914110D3A9
:1001F00011461846224600F033FA2D1A67EB010823
:100200004F4622460120002100F02AFA17EB000990
:100210004E41201EA4F10104DFDC484631462A4647
:100220004346BDE8F09FD2B201E000F8012B491E21
:10023000FBD270470022F6E710B513460A46044683
:100240001946FFF7F0FF204610BD2DE9FE4F80460E
:1002500081EA0300C00F0C46009021F0004123F01A
:100260000045B8EB0200A94105D240462146904620
:100270001C460B46024623F00040104347D0270D92
:10028000C7F30A00C3F30A510290401A01904028B4
:100290006BDAC3F3130040F4801B0098924620B140
:1002A0000023D2EB030A63EB0B0B01985946C0F114
:1002B0004002504600F0D4F906460D4650465946D5
:1002C000019A00F0ECF910EB08006141002487EA84
:1002D000115284EAE7731A4340D0009A62B3019A3C
:1002E000012A4FEA075215DC001B61EB02014FF0B7
:1002F000004202EA0752CDE90042001C41F580119C
:1003000032462B4600F023FA03B0BDE8F08F40469A
:100310002146F9E7001B61EB0201001C41F5801347
:1003200000185B412018A2F5001747EB030140EAD3
:10033000D570B6196D4111E06D084FEA360645EAF1
:10034000C0754FEA0752001B61EB0201001C41F52A
:10035000801149084FEA30000019514132462B46BE
:1003600003B0BDE8F04F00F0E3B90098012240006F
:100370000023D0EB020263EBE073009821464FEAC2
:10038000E074B8EB000061EB0401E9E783F000439F
:100390005BE781F0004158E72DE9FE4F81EA030455
:1003A00004F0004421F0004100944FF0000B23F0D2
:1003B000004350EA01045ED052EA03045BD0C3F369
:1003C0000A54C1F30A552C44A4F2F3340194A0FB5F
:1003D0000254C1F3130141F48011C3F3130343F436
:1003E000801301FB024400FB034E840A970A44EA8F
:1003F000815447EA8357A4FB076802958D0A05FBE1
:1004000007854FEA932C04FB0C542705029D4FEA05
:10041000065847EA1637B5EB08056EEB070C870E52
:10042000920E47EA811742EA8312A7FB0201B6EB5C
:100430000B0164EB00042B0D43EA0C335E1844EB14
:100440001C50DA465146E7FB0201C5F313044FEA9C
:100450000B3343EA14534FEA0432019C43EA060388
:10046000A4F10C040294009CCDE900B400F06FF9F3
:1004700003B0BDE8F08F00200146F9E72DE9F04D0B
:1004800081EA030404F0004B21F0004514464FF0CC
:10049000000A23F0004150EA050220D054EA01028C
:1004A0001DD0C5F30A570246C5F31303C1F3130069
:1004B000C1F30A5640F4801543F48013A7EB0608F5
:1004C000101BD64608F2FD3873EB050002D308F185
:1004D000010801E092185B41B8F1000F03DA002037
:1004E0000146BDE8F08D00204FF480110646844699
:1004F0000EE0171B73EB050705D3121B63EB050317
:1005000006434CEA010C49084FEA300092185B415F
:1005100050EA0107EDD152EA030012D082EA04004A
:1005200083EA0501084305D0101BAB4106D2012226
:10053000002306E000224FF0004302E06FF00102CA
:1005400053101AEB06004CEB085110EB0A0041EB7C
:100550000B01BDE8F04D00F0EBB80EB540F23341B1
:1005600002910021CDE900110A460B4600F0EFF898
:1005700003B000BDC1F30A5210B5C1F3130140F23C
:10058000FF3341F480119A4201DA002010BD40F29D
:1005900033439A42A2F2334203DC524200F06FF836
:1005A00010BD904010BD00F0004230F000400AD075
:1005B000C10D01F56071C0F3160042EA0151C20895
:1005C00040071143704700200146704730B5041EB4
:1005D00071F1000404DB4FF00044404264EB010180
:1005E000141E73F1000405DB1C464FF00043524219
:1005F00063EB04038B4208BF824230BD01F000432D
:1006000030B421F0004150EA010206D00A0DA2F5F3
:100610006072C1F31301002A02DC30BC0020704775
:10062000440F44EAC104C100E01830BC00EBC250E2
:1006300000F047B830B50B460146002020220124C7
:1006400009E021FA02F59D4205D303FA02F5491BA0
:1006500004FA02F52844151EA2F10102F1DC30BDB6
:10066000202A04DB203A00FA02F100207047914072
:10067000C2F1200320FA03F3194390407047202A67
:1006800004DB203A21FA02F00021704721FA02F33C
:10069000D040C2F120029140084319467047202AF9
:1006A00006DBCB17203A41FA02F043EAE07306E09A
:1006B00041FA02F3D040C2F12002914008431946AA
:1006C00070470029A8BF7047401C490008BF20F0B0
:1006D0000100704710B4B0FA80FC00FA0CF050EA48
:1006E000010404BF10BC704749B1CCF1200421FAC9
:1006F00004F411FA0CF118BF012121430843A3EBC4
:100700000C01CB1D4FEA00614FEA102042BF0020D0
:1007100010BC704700EBC35010440029A4BF10BCAC
:100720007047401C490008BF20F0010010BC704712
:1007300010B5141E73F1000408DA401C41F10001E9
:1007400092185B411A4301D120F0010010BD2DE940
:10075000F04D92469B4611B1B1FA81F202E0B0FA37
:1007600080F220329046FFF77BFF04460F4640EAB6
:100770000A0041EA0B0153465A46084313D011467A
:1007800053EA010019D0C8F140025046FFF777FF45
:1007900005460E46504659464246FFF761FF08435C
:1007A00005D0012004E020463946BDE8F08D002048
:1007B000054346EAE0762C4337430A986305E40A8A
:1007C000A0EB08000022FD0A44EA47540A3002D593
:1007D00000200146E9E7010510196941DDE90845F6
:1007E00000196941BDE8F04DA2E72DE9F04D002365
:1007F0001A461B1A8A4103DB00200146BDE8F08D32
:10080000C1F30A52C1F3130141F480154FF0000BFC
:10081000D10702D100186D41521E0027044640F254
:10082000FF11384601EB620A3E4680460246002030
:100830004FF48011FFF723FFC2197141BB1846EB3B
:100840000100B4EB030C75EB000C04D3E41A65EB68
:10085000000517460E46241908F101006D41804637
:100860003428E3DDF91946EB0600091BA84103D241
:100870004FF0FF32134601E0002213461BEB070046
:1008800046EB0A51BDE8F04DFFF752BFC1F30A52E3
:10089000C1F3130140F2FF3341F480119A4202DAAE
:1008A00000200146704740F233439A42A2F233429D
:1008B00002DC5242FFF7E3BEFFF7D2BE30B5041EA2
:1008C00071F1000404DB4FF00044404264EB01018D
:1008D000141E73F1000405DB1C464FF00043524226
:1008E00063EB0403994208BF904230BD064C074DAC
:1008F00006E0E06840F0010394E8070098471034F0
:10090000AC42F6D3FFF744FCE86801082869010807
:1009100070B58D1810F8014B14F0030201D110F8D6
:10092000012B231106D110F8013B03E010F8016BF5
:1009300001F8016B521EF9D1ABB110F8012B04F094
:100940000C048A1A0C2C03D0A2EB84129B1C08E026
:1009500010F8014BA2EB0422F8E712F8014B01F862
:10096000014B5B1EF9D5A942D4D3002070BD000015
:10097000F0B5F1B1002300BF02EB430C32F813E0F5
:10098000BCF802C02EF0030E2CF0030C50F80E50F1
:1009900050F80C6000EB0E0400EB0C0740F80E6002
:1009A00040F80C507E68656802338B4266607D605B
:1009B000E2D3F0BD2DE9F04104889846164607467B
:1009C000012A0D460CD1E4B3281D214690ED000A02
:1009D0000139B1EE400A80ED000A00F10800F5D1BE
:1009E000FF2C0CDDB4F5806F10DBB4F5805F22D0F6
:1009F000B4F5006F11D0B4F5806F17D021E03F2C13
:100A000010DC102C12D0202C07D01AE0B4F5807F17
:100A100003D0B4F5007F0ED013E03846294600F02D
:100A200005F90EE0402C06D0802C0AD13846294624
:100A300000F030F805E07A6828462146012300F0EE
:100A4000FBFBB8F1000F04D0B989BA682846FFF75C
:100A50008FFF012E1CD100EE104A002CB8EE400A88
:100A600008BFBDE8F081B7EE001A81EE000A00BFB2
:100A700095ED001A95ED012A20EE011A22EE402A8A
:100A800085ED001A85ED012A013C05F10805EFD13D
:100A9000BDE8F0812DE9F0472DED028B03888046FB
:100AA000084601EB830AD8F804200021B1EBD30FEC
:100AB0004FEA530900F0AB80D9080AEB890C00EB30
:100AC000890E0027C4190AEB070594ED000A95ED7D
:100AD000003A94ED011A95ED014A0EEB07030CEB79
:100AE000070694ED022A95ED025A70EE035A93ED33
:100AF000006AD6ED001AD6ED012AD6ED023AD6EDFF
:100B0000034AC4ED005A71EE045A93ED017AC4ED24
:100B1000015A72EE055AD3ED020AC4ED025AD4ED21
:100B2000035AD5ED036A31EE441A35EEA68A36EE45
:100B3000214AD3ED037A84ED038A83ED004A37EE30
:100B4000224A83ED014A30EEA34A83ED024A37EE92
:100B5000A44A83ED034AD31931EEC64A33EEE06A64
:100B6000D3ED000AD3ED011A30EE430A32EE452AE6
:100B700032EEC75A60EE202A61EE213A21EE201AA9
:100B800020EE210A31EE400A85ED010A24EE210A09
:100B900025EE211A25EE205A72EEA32A24EE204AD1
:100BA00030EE450AC5ED002A86ED000A34EE010A52
:100BB00086ED010A93ED020A93ED031A35EEE63A4B
:100BC00022EE004A23EE015A23EE003A22EE012AD9
:100BD00034EEE77A33EE422A85ED032A26EE012A27
:100BE00027EE011A27EE003A26EE000A34EE054AF7
:100BF00032EE432A30EE010A013907F1100785ED84
:100C0000024A86ED022A86ED030A7FF45BAF49466D
:100C1000022300F011FBD8F8042050464946022375
:100C2000BDEC028BBDE8F04700F006BB2DE9F04FAC
:100C300081B02DED088B8EB002880346500801EB81
:100C4000800505EB800691ED000A91ED011A96ED05
:100C5000002A96ED013A04935B6806EB800730EEBC
:100C6000024A30EE420A31EE032A31EE431A95ED84
:100C7000013A95ED005A0593930897ED017AD7ED67
:100C8000000A029374EE452A72EE433A34EE054AA6
:100C900032EE032A6FF0010334EE204A32EE072AC7
:100CA00003EB920230EE036A71EE451A30EE430A0E
:100CB00031EE051A81ED004A0A9181ED012A5108B1
:100CC00036EE476A71EEA01A72EEE02A73EEC73A6A
:100CD00030EE070A31EE601A0095019603970D91E8
:100CE000C10085ED006AC5ED011AC6ED002AC6ED0A
:100CF000013A87ED000A87ED011A0C9100EB4001E3
:100D00006FF007036FF003074FEA800E07EBC00B8D
:100D100007EB800A03EB001903EB81028C00002033
:100D2000002500210B9100BF0A9E059B07900695A8
:100D3000089406EB04080C9C311806EB040C06EB37
:100D40000E0491ED020A9CED022AD4ED020A30EE67
:100D5000026AD8ED022A36EE204A34EE224A91ED9C
:100D6000031A9CED033AD4ED031AD8ED033A81ED52
:100D7000024A94ED034A31EE037A98ED035A37EEB6
:100D8000044ACDF824E034EE054A81ED034A0B997C
:100D900030EE420A31EE431A30EE212A03EB010E07
:100DA00032EE634A31EE602A0D9932EE225A36EE67
:100DB000602A37EE613A30EE610A31EE201A1F18D0
:100DC000581932EE622A33EE633A30EE230A0029D4
:100DD00031EE621A00F0CC800A998E1801EB0A03FA
:100DE00001EB0905594493ED007AD6ED010AD1EDE6
:100DF000003A77EE202AD5ED014A72EEA35A75EE3D
:100E0000A45A13ED016AD6ED001A51ED016AD5ED31
:100E1000007AC3ED005A11ED018A76EE215A95ED64
:100E2000009A35EE888A38EE098A03ED018A97ED3B
:100E3000028A97ED039A24EE08AA25EE09BA25EE58
:100E4000085A24EE094A35EE444A37EE605A84EDDA
:100E5000034A36EE614A35EE666A33EEE47A36EEE0
:100E6000276A74EE070A66EE091A20EE899A60EE88
:100E7000880A26EE086A3AEE0BAA71EEE00A36EE10
:100E8000096A84ED02AAC1ED000A01ED016A90ED44
:100E9000046AD0ED050A62EE061A23EE208A23EEDC
:100EA000063A22EE202A33EE422A8CED032A32EE55
:100EB000E32A35EEE63A71EE881A33EE673A32EEFF
:100EC000642A0D98CCED021A62EE461A23EE066AE9
:100ED00023EE203A22EE202A31EEC33A32EE462AA1
:100EE000013886ED013A86ED002A0D909EED062A26
:100EF0009EED073A0C9820EE026A61EE030A21EE9D
:100F0000021A20EE030A083031EE400A37EEE61AE4
:100F1000DDF824E00C9088ED030A37EE440A31EE48
:100F2000451A0B9821EE034A20EE033A20EE020AFE
:100F300036EE206A21EE021A34EE400A183088EDAF
:100F4000026A85ED010A31EE030A089C0B9085EDDB
:100F5000000A069D07980EF1080E08341035083077
:100F6000A9F10809083AABF1080BAAF1080ADBE677
:100F700097ED026A97ED037A64EE060A65EE071AAA
:100F800025EE065A24EE074A30EEA16A35EE444AB1
:100F900084ED026A84ED034A90ED044A90ED055A0F
:100FA00022EE046A23EE057A23EE043A22EE052AA5
:100FB00036EE074A33EE422A8CED024A8CED032AC4
:100FC0009EED062A9EED073A029D20EE024A21EE92
:100FD000035A21EE021A20EE030A0A98059A34EE0B
:100FE000052A31EE400A2946042388ED022A88EDBD
:100FF000030A00F021F9049C009862682946042342
:1010000000F01AF9626801982946042300F014F9E7
:1010100062680398294604230EB0BDEC088B01B02A
:10102000BDE8F04F00F008B92DE9F04381B02DED97
:10103000028B0C4600219046B1EB920F054674D00E
:101040004FEA980795ED000A95ED011A20EE000A87
:1010500021EE011A30EE018AB0EE480A04F0E5F9FB
:10106000B4EE400AF1EE10FA49D684ED000A95ED8F
:10107000020A95ED031A20EE000A21EE011A30EE65
:10108000018AB0EE480A04F0D0F9B4EE400AF1EE5D
:1010900010FA39D684ED010A95ED040A95ED051A8A
:1010A00020EE000A21EE011A30EE018AB0EE480A65
:1010B00004F0BBF9B4EE400AF1EE10FA29D684ED43
:1010C000020A95ED060A95ED071A20EE000A21EEB8
:1010D000011A30EE018AB0EE480A05F1200904F148
:1010E000100604F0A2F9B4EE400AF1EE10FA15D69B
:1010F00084ED030A013F4D463446A3D113E0B0EE20
:10110000480A04F092F9B0E7B0EE480A04F08DF90D
:10111000C0E7B0EE480A04F088F9D0E7B0EE480A1C
:1011200004F083F9E4E734464D4618F0030620D076
:1011300095ED000A95ED011A20EE000A21EE011A44
:1011400030EE018AB0EE480A271D04F06EF9B4EEC5
:10115000400AF1EE10FA07D684ED000A013E05F1CF
:1011600008053C46E4D104E0B0EE480A04F05DF91D
:10117000F2E7BDEC028B01B0BDE8F083F0B590ED75
:10118000000A4C1E4FF0000CBCEB940F00F1040E53
:101190003BD001272646A50867F301064FF0000C57
:1011A000042700BF9EED001A9EED012A9EED023A33
:1011B000B4EE410A9EED034AF1EE10FABCBFB0EE68
:1011C000410AA7F1030CB4EE420AF1EE10FABCBFDB
:1011D000B0EE420AA7F1020CB4EE430AF1EE10FAA7
:1011E000BCBFB0EE430AA7F1010CB4EE440AF1EE25
:1011F00010FABCBFB0EE440ABC46013D07F104073B
:101200000EF1100ECED100EB860E14F003000ED0BE
:10121000404200BFBEEC011AB4EE410AF1EE10FAF2
:10122000BCBFB0EE410A01EB000C0130F2D382EDFD
:10123000000AC3F800C0F0BD2DE9F04F81B02DEDDC
:10124000108BA0B0DFED04CA00900430CDE902326B
:101250000190CDE91E1101E0F304353F1F9A4FF0D4
:10126000000AD308DF00A7EBD200C0001D904FEAB0
:10127000C20C03EB430503EB8302580106931E01E6
:10128000019B2C014FEAC20EED00CDE90C0ECDE919
:101290000A5600BF0A9D191803EB05091D9D03EBB3
:1012A0000E0003EB070810ED014A86469A1918193B
:1012B00003EB050B13ED011A11ED012A18ED013AAC
:1012C00012ED017A50ED010A59ED011A5BED012A88
:1012D00031EE025A33EE046A77EE203A71EEA24AFA
:1012E00075EE235A76EE246A75EEA67A43ED017AFE
:1012F00075EEE65AD8ED007A9EED008A99ED00BAB7
:101300009BED00CAD3ED006A41ED015AD1ED005AC0
:1013100092ED009A90ED00AA37EE88EA7BEE0C8AF7
:1013200036EEA5DA39EE0AFA35EE635A36EE646A1D
:101330007EEE684A7DEE0F9A7DEE4F3A35EE24DA66
:1013400035EE645A7EEE28AA02ED01DA33EEC6DAF3
:1013500000ED015A36EE235A31EE421A33EE442A9A
:1013600037EE603A31EEE24A37EEC86A7BEE4C0A5D
:1013700079EEAABA79EEEA9A72EE441A32EE042AAB
:1013800036EE604A36EE206AC3ED00BAC1ED009A2F
:1013900082ED00DA80ED005A36EEE55A39EE4A7AEF
:1013A00061EEAC1A22EE2C2A24EE2C4A26EE2C6A90
:1013B00071EE210A73EE022A75EE043A77EE064AC0
:1013C00031EE611A33EE422A35EE443A37EE464AA0
:1013D0002646744670EEA45A70EEE40A31EE045AC2
:1013E0001F9A1E9948ED015A73EEE25A4BED010A1D
:1013F00072EEA30A204604ED015A33EE425ADDF89C
:1014000034E0C8ED005ACBED000A84ED005A0C9888
:1014100031EE441A34460B9E924409ED011A32EE25
:10142000031A8A45634489ED001AFFF433AF1F980D
:101430004028C0F0D4810298009E80B205900698A2
:10144000CDE90E4CC0EBC000C00000240125109770
:10145000049000BF0598039B044403EBC40191ED85
:10146000000A03EB04128DED1D0A92ED000A04EB55
:10147000440203EBC2008DED1C0A90ED000A03EB61
:1014800044118DED1B0A91ED000A04EB8401C800A4
:1014900003EBC1018DED1A0A91ED000A4FEAC20A71
:1014A0004FEA021B03EB02128DED190A92ED000ABE
:1014B000C4EBC4024FEAC40CD10003EBC2028DEDB1
:1014C000180A92ED000A0CF104024FEA041E1A44B5
:1014D0008DED170A92ED000A0EF104021A448DED0B
:1014E000160A92ED000A0AF104024FEA44191A445E
:1014F0008DED150A92ED000A09F104021A448DEDF2
:10150000140A92ED000A043018448DED130A90ED90
:10151000000A0BF1040018448DED120A90ED000A48
:10152000081D18440994D0ED006A0796B446089542
:101530002B46DDE90C54DDE90A76DDF810808DEDEF
:10154000110A00BF10980E990CEB05090CEB000E68
:101550000CEB04000CEB060B0CEB010A0CEB070286
:101560000CEB0801DCED027A99ED028A9EED029AFD
:1015700090ED02AA9BED02DA9AED02EA92ED02FAF0
:10158000D1ED028A37EE88BA39EE0ACA7DEE0E9A9C
:101590007FEE28AA7BEE29BAF0EE6C3A7CEE2ACADE
:1015A0007BEEACDACCED02DA7BEEECBADCED03CA12
:1015B000D9ED03DADEED03EAD0ED03FA9BED030A81
:1015C0009AED031A92ED032A91ED033A3CEEAD4AEF
:1015D0003EEEAF5A30EE016A32EE037A74EE060A3E
:1015E00075EE071ADDED1A4ADDED135A70EEA12AE9
:1015F00070EEE10ACCED032A64EEAB1A65EEA02A88
:1016000071EEA21A64EEA00A65EEAB2A70EEE20A51
:10161000C9ED021AC9ED030A7BEE690A7CEE6A1A6B
:1016200034EE464A35EE475A9DED1CCADDED154AAB
:1016300030EE856A34EE617A6CEE062A24EE87BAC3
:101640002CEE077A24EE866A30EEC55A31EE844AD3
:10165000DDED180ADDED111A37EE466A8BED036AEF
:1016600020EE856A21EE847A20EE844A21EE855AA6
:1016700037EE066A34EE454A39EE4A5A3FEE687A4A
:101680007EEEEF1A30EE410A32EE431A7BEE222A4A
:1016900035EE472A35EE073A31EEC15A31EE811A5E
:1016A000CBED022A8AED026A8AED034A37EEC84A78
:1016B0003DEE4E6A7CEEED0A22EE232A23EE233A1B
:1016C00025EE235A21EE231AF0EE63CA34EE027A95
:1016D00076EE031A70EE852A70EE017ADDED1D3A82
:1016E000DDED164A37EE278A32EEE19A23EE88AA1C
:1016F00024EE89BA23EE899ADDED173A37EE677A40
:1017000071EEA21A63EE872A66EEA17A63EEA11A41
:1017100026EE877A24EE888A31EEC77A34EE422AA2
:1017200036EE433A30EEC54A30EE410ADDED190A95
:10173000DDED121A39EE488A32EE001A34EE435AC1
:101740008EED038A81ED037A20EE816A21EE857A9F
:1017500020EE855A21EE811A3AEE0BAA72EEA72AE4
:1017600036EE076A35EE411A8EED02AAC1ED022A65
:1017700080ED026A80ED031A1F9833EE041A0344C9
:101780001E989DED1B4A9DED145A32EE400A83428D
:101790000F9824EE002A25EE013A24EE011A25EED8
:1017A000000A32EE032A31EE400A844482ED022A16
:1017B00082ED030AFFF4C6AE089D0698079E013528
:1017C000099C854206F10806FFF444AE0298C00069
:1017D00002901F983F2806981F903FF63FAD20B01B
:1017E000BDEC108B01B0BDE8F08F000070B5012298
:1017F000294D54022146284601F00CF900222146C9
:10180000284601F007F9254E00222021304601F03C
:1018100001F9022003F0E4FA214D0024285D03F0D1
:10182000DFFA641C042CF9DB01222021304601F090
:10183000F1F80A21491EFDD100222021304601F095
:10184000E9F8032003F0CCFA154D00242D1D285D86
:1018500003F0C6FA641C042CF9DB01222021304677
:1018600001F0D8F80A21491EFDD10022402130465E
:1018700001F0D0F80A21491EFDD101224021304655
:1018800001F0C8F80A21491EFDD13046BDE870407C
:101890000022402101F0BEB80008024000180240BA
:1018A000000000207CB526A0274E0068009025A0EF
:1018B0000022006801902021304601F0ABF80020A2
:1018C00003F08EFA00246D46285D03F089FA641C4B
:1018D000042CF9DB01222021304601F09BF80A217B
:1018E000491EFDD100222021304601F093F801204D
:1018F00003F076FA002401AD285D03F071FA641C50
:10190000042CF9DB01222021304601F083F80A2162
:10191000491EFDD100224021304601F07BF80A210A
:10192000491EFDD101224021304601F073F80A2101
:10193000491EFDD100224021304601F06BF87CBDEC
:101940000040000001400820001802402DE9F0414D
:101950000F460646144651EC100BFEF70BFEFEF741
:10196000FCFD9FED301B53EC112BFEF715FDFEF730
:1019700001FE05462046FEF7F0FD9FED2C1B53ECC3
:10198000112BFEF709FDFEF7F5FD082E14D2DFE856
:1019900006F00406080A0C0E10120E240CE00F24A8
:1019A0000AE0102408E0112406E0122404E01324C5
:1019B00002E0142400E015241E4E290A0022F571CD
:1019C000B171290C7171290E3171F070000AB0707B
:1019D0007770380A184D30702021284601F01AF827
:1019E000204603F0FDF90024305D03F0F9F9641C92
:1019F000082CF9DB01222021284601F00BF80A21EE
:101A0000491EFDD101224021284601F003F80A2198
:101A1000491EFDD12846BDE8F0410022402100F0DA
:101A2000F9BF000095D626E80B2E1140012FC116F4
:101A30006CC166402C0000200018024010B5014621
:101A4000806B026C12F0500F05D0026CD20626D5C6
:101A500000F0D6FA10BD016C41F400710164016818
:101A60008A6812F0405F17D1027EAAB9CA6A12F4DE
:101A7000700F02D08A6852050ED44A6822F0200204
:101A80004A60016C21F480710164016CC90403D4C3
:101A9000016C41F00101016400F0B0FA10BD806BEF
:101AA000C26CBDE810400846104710B5806B40215D
:101AB0000164416C41F00401416400F0A1FA10BDE1
:101AC00010B5806B00F09BFA10BD0000014800F0DB
:101AD00098BA0000C8C00120464910B54A6822F4EF
:101AE00040324A604A6843681A434A6001684A685B
:101AF00022F480724A6001684A68036942EA03225C
:101B00004A6001684A6822F040724A6001684A6887
:101B100083681A434A6001688A6822F400628A6016
:101B200001688A68C3681A438A60816A6FF07062CC
:101B3000D14201688A6822F070628A6001688A680E
:101B40000CD0836A1A438A6001688A6822F0405286
:101B50008A6001688A68C36A1A4301E022F0405231
:101B60008A6001688A6822F002028A6001688A68D5
:101B7000037E42EA43028A6090F82010002901683F
:101B80004A680FD042F400624A6001684A6822F451
:101B900060424A6001684A68174C436A04EB433369
:101BA0001A4301E022F400624A600168CA6A22F422
:101BB0007002CA620168CA6A838B104C04EB03533B
:101BC0001A43CA6201688A6822F400728A60016856
:101BD0008A6890F8303042EA43228A6001688A6855
:101BE00022F480628A6001688A68406942EA802043
:101BF000886010BD0023014000E0FFFF0000F0FFFF
:101C0000FEB52548264C90ED000A2448B8EE400A5F
:101C1000D0ED000A80EE201ABDEEC10A10EE100AC7
:101C200000EB800040006060B0F5805F02DB40F6B2
:101C3000FF70606010254FF6E0701AA10095CDE9A5
:101C4000011040F295162B465022C821304607F06D
:101C50001BFD16A11648626803F000F94FF6FF70ED
:101C600013490095CDE9011010235022DC213046A4
:101C700007F00AFD00200F490F4A636808E001EBF6
:101C8000800494ED000A02EB8004401C84ED000AFD
:101C90009842F4DBFEBD000040C0012044C001209A
:101CA00008C0012053615F6E756D3A0025346400F1
:101CB00030980020E079012030580020FEE7000035
:101CC000014800F0E7BB000098C30120014800F084
:101CD000E1BB000084C1012010B5034800F0DAFB2D
:101CE00002490120087010BD10C101202CC0012044
:101CF000014800F0CFBB000038C301200168182361
:101D0000CAB2103AB2FBF3F2054B6FF30901032A92
:101D10009B5CC36500D9091D8165084670470000BA
:101D200098C8000810B5014600208B698A6A4FF0F8
:101D3000C07453B1B3F5005F15D072B1012A0CD055
:101D4000022A0AD0032A09D104E01AB1012A06D0D6
:101D5000022A03D1C96AC90100D5012010BDC96A90
:101D6000A142FAD010BD002AF7D0012AF2D0022AEF
:101D7000F3D0032AF3D010BD30B50468256825F4EC
:101D800080252560046863608368402B036803D066
:101D900099600068C26030BD9A600068C16030BD63
:101DA00070470000044940F2CF10086003494FF625
:101DB000FF7008607047000004C0012000C00120CF
:101DC00072B6FEE730B5B3F5804F05D06FF07041C5
:101DD00040F82210002030BD8C690B688D682343C9
:101DE0004C688989240144EA0524234343EA0141DC
:101DF00050F82230014C23401943E9E70000F0CFAE
:101E000010B50A6850F8223023F0010340F8223060
:101E10008B68082B23D000224C681C43CB681343EB
:101E20000A691C4314434A698B691443CA69144301
:101E30000A6A14434A6A14438A6A1443CA6A1443F6
:101E40000A6B1443CA6B234309681A43054C50F8C4
:101E50002130A343134340F82130002010BD40221D
:101E6000DAE700007FFF0F0030B5D1E9003443EA24
:101E700004138C688D89240244EA054423430C8AA8
:101E8000094D00EB820005EB045423430C7D6D01EA
:101E900005EB0464896923430B43416801F0404129
:101EA0000B434360002030BD0000F0FF704700008E
:101EB00078B50024009490F83C20012A19D0012222
:101EC00080F83C200A6807250368092A13D9DE68D0
:101ED0000A3A02EB42029540AE43DE600A788B6814
:101EE0000A3A02EB420293400268D5682B43D36062
:101EF00010E0022078BD1E6902EB42029540AE431D
:101F00001E610A788B6802EB4202934002681569F1
:101F10002B4313614A681F25072A13D203685E6B9F
:101F2000521E02EB82029540AE435E630A8893B272
:101F30000A79521E02EB820293400268556B2B43D2
:101F4000536327E003680D2A12D21E6BD21F02EBE7
:101F500082029540AE431E630A8893B20A79D21F6B
:101F600002EB820293400268156B2B43136311E06E
:101F7000DE6A0D3A02EB82029540AE43DE620A88C9
:101F800093B20A790D3A02EB820293400268D56A55
:101F90002B43D362164B0568144A9D4206D10D6847
:101FA000122D03D1556845F48005556005689D42A2
:101FB00018D10B68102B01D0112B13D1536843F4A7
:101FC00000035360096810290CD10A490A4A0968BC
:101FD000B1FBF2F101EB8101490000E0491E0091E3
:101FE0000029FBD180F83C40002078BD002301404F
:101FF000002001405CC0012040420F007047704744
:10200000704770B5044600680668456816F0020F10
:1020100005F020022AD04AB3216CC90603D4216CF2
:1020200041F400712164816811F0405F17D1217E75
:10203000A9B9C16A11F4700F02D0816849050ED4A4
:10204000416821F020014160206C20F48070206400
:10205000206CC00403D4206C40F0010020642046B2
:10206000FFF7CCFF21686FF01200086016F0040F34
:1020700005F0800132D089B3206CC00603D4206CF7
:1020800040F4005020642068816811F4401F1ED184
:10209000816B11F4401F02D08168490517D4416853
:1020A000490514D4816811F0405F10D1217E71B9C7
:1020B000416821F080014160206C20F48050206450
:1020C000206CC00503D4206C40F001002064204641
:1020D000FFF7ECFE21686FF00C00086016F0010FAE
:1020E00005F040010FD071B120680068C0070AD028
:1020F000206C40F480302064204600F043F82168D2
:102100006FF00100086016F0200F05F080610ED01E
:1021100000290CD0606C40F00200606420686FF011
:10212000200505602046FFF76BFF2068056070BD45
:1021300070B504004FF0000603D0206C002510B1EC
:1021400007E0012070BD204600F01EF8656484F8A9
:102150003C50206CC00610D4206C20F4885040F015
:10216000020020642046FFF7B7FC6564206C20F075
:10217000020040F00100206400E0012684F83C5099
:10218000304670BD7047000070B586B00646142119
:102190006846FEF74FF82249306888423DD1214811
:1021A0000025016841F480710160006800F48070CE
:1021B00005901C481438016841F001010160006875
:1021C000694600F001000590042000900320CDE94D
:1021D0000105154800F036FB154C1448C4E900050C
:1021E0000015A560C4E90350400060618000C4E9A7
:1021F00006054FF44030C4E90805204600F01AFAFD
:1022000008B1FFF7DDFDB463002202211220A663AE
:1022100000F06CFD122000F05BFD06B070BD000008
:102220000020014044380240000002401064024097
:1022300010C10120F8B500230446009390F83C003B
:10224000012807D0012084F83C0020688568ED074C
:1022500002D011E00220F8BD856845F001058560D7
:102260004048414D0068B0FBF5F000EB400000E055
:10227000401E00900028FBD120688568ED0503D53D
:10228000856825F48075856020688568ED075FD0D6
:10229000256C40F20166B54345F4807525644068BD
:1022A000400505D5206C20F4005040F48050206497
:1022B000206CC00404D5606C20F00600606400E06F
:1022C000636484F83C30A36B2948284DD863A36B22
:1022D00028481864A36B2848D86423686FF022004C
:1022E00018602068436843F0806343602068836817
:1022F00043F480738360134620680A46A66B00F19E
:102300004C01304600F000FA68681C49C00620689D
:1023100006D0884224D1816811F0405F13D01FE0BD
:102320008842F8D0164A904203D1D1F80423D2064D
:10233000F1D0144A904213D1D1F8041301F01F01D7
:102340001029E8D30CE0816841F08041816007E00A
:10235000206C40F010002064606C40F0010060646C
:102360000020F8BD5CC0012040420F000023014066
:102370003D1A0008C11A0008AB1A000800200140ED
:10238000002101400022014070B54379012B1CD08F
:10239000012545710223037103681E6802F01002D3
:1023A00040F6FE749440A643D1E900410C439440AA
:1023B00034431C6001680B68C0249440A3430B6045
:1023C000057100214171084670BD022070BD70B5D5
:1023D000040003D02079002510B105E0012070BD74
:1023E0006571204600F008F8022020712561012067
:1023F0002071002070BD000070B586B00646142123
:102400006846FDF717FF1E493068884236D11D48DF
:102410000025016841F000510160006800F00050A3
:10242000059018481038016841F00101016000680A
:10243000694600F001000590302000900320CDE9AE
:102440000105114800F0FEF9114C104820604FF0D2
:10245000606060604020C4E9020500012061400026
:1024600060618000C4E9060525622046656200F0CF
:10247000E1F808B1FFF7A4FCB460A66306B070BD34
:102480000074004040380240000002408860024072
:1024900084C101202DE9F84304464FF00009CDF82E
:1024A000009063484FF41651A56D0068B0FBF1F73A
:1024B0002E6894F85C20082101FA02F030420FD017
:1024C0002068026852070BD5026822F004020260FD
:1024D00094F85C008140A960606D40F00100606587
:1024E00094F85C104FF0010808FA01F0304208D06F
:1024F00021684969090604D5A860606D40F00200B2
:10250000606594F85C1004208840304208D021684F
:102510000968890704D5A860606D40F00400606513
:1025200094F85C1010208840304218D02168096867
:10253000090714D5A86020680168490304D500681C
:10254000000308D5A16C07E00168C90503D4016840
:1025500021F008010160216C09B12046884794F8F8
:102560005C1020208840304231D021680968C906BB
:102570002DD5A86094F8350005282068016806D09C
:10258000490347D5006800031DD4616C1CE021F0AD
:10259000160101602068416921F080014161206CD1
:1025A00008B9A06C20B12068016821F00801016021
:1025B00094F85C103F208840A86084F8358084F847
:1025C0003490216D1FE0E16B09B120468847606DB2
:1025D00000282BD0606DC00714D0052084F835008A
:1025E0002068016821F0010101600098401C009002
:1025F000B84203D820680068C007F6D184F8358057
:1026000084F83490E16C002910D001B02046BDE878
:10261000F04308470168C905D5D4016821F01001CD
:10262000016084F8358084F83490CCE7BDE8F88305
:102630005CC001202DE9F041044600F0F1F90546A7
:102640005CB1022084F83500002684F834602068EC
:10265000016821F0010101600DE00120BDE8F08179
:1026600000F0DEF9401B052805D920206065032015
:1026700084F83500F2E720680068C007F0D12168CF
:102680000A6820480240D4E901031843D4E903351D
:102690002B43184363691843A3691843E36918433C
:1026A000236A18431043626A042A03D1D4E90B2336
:1026B0001A431043086020684069656A20F00701EA
:1026C00028460D43012704280CD1A06A0543E06A7F
:1026D00040B12046FFF726FB20B14020606584F81A
:1026E0003570BAE7206845612046FFF707FB94F88C
:1026F0005C203F2191408160666584F83570002040
:10270000ACE700003F8010F02DE9F0410446866DF3
:1027100090F83400002501280DD0012084F8340001
:1027200094F835700020012F07D084F8340002257A
:102730002846BDE8F0810220FBE7022784F83570C7
:1027400060652046FFF718FB94F85C103F20884036
:10275000B0602068016841F016010160206C20B172
:102760002068016841F0080101602068016841F0BB
:1027700001010160DCE7000070B5044600F050F98B
:102780000546601C02D004480078044400F048F973
:10279000401BA042FAD370BD50C001202DE9F0418A
:1027A00086B014216846FDF745FD204801680029E0
:1027B00039D1012101601E480024016841F0010166
:1027C000016000684FF4805800F001000C27CDF83C
:1027D0000080CDE90470032602250396CDE901545B
:1027E0006946144800F02EF84FF68070CDE90005D8
:1027F00002AA694682E8D0000F4800F023F84CF2A4
:102800003370CDE9000502AA694682E8D0000B4882
:1028100000F018F802AA694682E8D000CDE90085E8
:10282000074800F00FF806B0BDE8F08148C001206D
:10283000383802400014024000100240000C0240F0
:10284000001802402DE9F84FDFF89C910022A9F111
:10285000040B03274FF00F0C09F1040AABF1040E2F
:1028600001250B6895402B40AB426ED10C7904F0EA
:102870000304012C01D0022C15D18668540007FAFC
:1028800004F826EA0806D1F80C8008FA04F848EAA9
:102890000608C0F808804468AC430D79C5F30015FC
:1028A0009540254345600C79E443A40708D0C568EA
:1028B000540007FA04F6B5438E68A6402E43C6605E
:1028C0000C7904F00304022C11D1D40800EB840627
:1028D000356A5407E40E0CFA04F825EA0805D1F825
:1028E000108008FA04F848EA0508C6F82080056850
:1028F000540007FA04F6B5430E7906F00306A64025
:102900002E4306604C6814F4403F66D0374C25686F
:1029100045F480452560246822F0030504F48044D2
:102920000094334C05EB0408D8F808589407260F98
:102930000CFA06F4A5432F4CA04201D1002424E058
:102940002D4CA04202D101241FE046E02B4CA042B6
:1029500001D1022419E02A4CA04201D1032414E041
:10296000284CA04201D104240FE0274CA04201D101
:1029700005240AE0254CA04201D1062405E0244CA0
:10298000A04201D1072400E00824B4402C43C8F839
:102990000848D9F800404D464E689C43F60200D5E1
:1029A0001C432C60DAF8004055464E689C43B60242
:1029B00000D51C432C60DBF800405D464E689C430C
:1029C000B60300D51C432C60DEF8004075464E6807
:1029D0009C43F60300D51C432C60521C102AFFF4C4
:1029E0003FAFBDE8F88F0000083C0140443802408A
:1029F0000030014000000240000402400008024094
:102A0000000C024000100240001402400018024076
:102A1000001C02400AB1816170470904FBE7000015
:102A2000014880687047000050C0012070B5040064
:102A300025D094F83D00002520B984F83C5020466C
:102A400000F0B8F8242084F83D002068016821F0E7
:102A5000010101602068016841F4004101602068C3
:102A6000016821F40041016000F00CFA4D4B6168EF
:102A7000994201D84C4900E04C49884201D20120DA
:102A800070BD4B492268B0FBF1F1566826F03F0655
:102A90000E43566062689A4206D94FF496725143CB
:102AA0004FF47A72B1FBF2F12268491C166A26F0E3
:102AB0003F06314311626168994210D84900401EB7
:102AC000B0FBF1F2521CC2F30B02042A01D2042023
:102AD00022E0B0FBF1F0401CC0F30B001CE0A26848
:102AE000F2B301EBC10303EB0116431EB3FBF6F394
:102AF0005B1C43F480431B0549D092B301EBC10238
:102B000002EB0111401EB0FBF1F0401CC0F30B00C2
:102B100040F4804040F400402168CA694CF6FF73DD
:102B20009A431043C861D4E9071001432068026842
:102B300022F0C00211430160D4E90301014320687F
:102B4000826848F2FF339A4311438160D4E905104B
:102B500001432068C26822F0FF021143C16001E016
:102B60000EE016E02068016841F001010160256473
:102B7000202084F83D00256384F83E50002070BD7D
:102B800001EB4106431EB3FBF6F35B1CB3E70120E8
:102B9000C2E701EB4101401EB0FBF1F0401CC0F365
:102BA0000B00B7E7A086010080841E0000093D00ED
:102BB00040420F0010B586B0044614216846FDF768
:102BC00039FB13492068884220D11248002102684D
:102BD00042F002020260006800F002000590C0208E
:102BE00000901220CDE901010320039004200490FD
:102BF00069460948FFF726FE06481030016841F48F
:102C000000110160006800F40010059006B010BDCE
:102C100000540040303802400004024002488168FD
:102C2000027811448160704750C001200B4810B5F4
:102C3000016841F400710160016841F48061016044
:102C4000016841F480710160032000F06FF80F20EB
:102C500000F006F800F024F8002010BD003C02400F
:102C600070B50D4D04464FF47A712878B1FBF0F041
:102C70000A490968B1FBF0F000F040FC48B9102C9B
:102C800007D200222146501E00F030F800206C6070
:102C900070BD012070BD000050C001205CC001204B
:102CA0000A4808B5016841F480410160006800F4F9
:102CB000804000900548001F016841F0805101608C
:102CC000006800F08050009008BD000044380240C9
:102CD000002809DB00F01F0201219140400980001B
:102CE00000F1E020C0F8001170470000F0B40E4B76
:102CF0001B68C3F30223C3F10704042C00D9042486
:102D00001D1D072D01D2002300E0DB1E012606FA5F
:102D100004F56D1E0D409D409E40761E164045EA0E
:102D20000601F0BC02F0C6B80CED00E0064A00F067
:102D3000070110684FF6FF03184040EA01200349DD
:102D400008431060704700000CED00E00000FA0539
:102D50002DE9F0470D46040065D0DFF81491D9F84D
:102D60000000EFB200F00700A84207D289F8007017
:102D7000D9F8000000F00700A84254D120683D4E69
:102D8000810712D5400703D5306840F4E050306029
:102D90002078000703D5306840F460403060306828
:102DA000A16820F0F000084330602078C0072DD0E3
:102DB000304960680839012812D0022813D003284E
:102DC00011D00968890700292DDA316821F0030143
:102DD00001433160FFF724FE804641F2883A0EE05D
:102DE00009688903EFE709688901ECE7FFF718FE36
:102DF000A0EB0801514502D90320BDE8F0873068F7
:102E0000616800F00C00B0EB810FEFD1D9F8001031
:102E1000484601F00701A94207D90770006800F091
:102E20000700A84201D00120E7E72078400705D538
:102E30003068E16820F4E0500843306020780007F3
:102E400006D53068216920F4604040EAC100306056
:102E500000F038F83168084AC1F30311515CC840EA
:102E60000649086006480068FFF7FAFE0020C4E73C
:102E7000003C024008380240A0C800085CC00120A5
:102E800054C001200448054900680968044AC1F398
:102E90008221515CC84070475CC001200838024064
:102EA000B0C800080448054900680968044AC1F32D
:102EB0004231515CC84070475CC001200838024074
:102EC000B0C80008154810B5006810F00C0114488F
:102ED00013D0144B04290FD008290ED10F4C241FF6
:102EE000216801F03F022168490207D52068C0F33C
:102EF0008810A0FB030106E0184610BD2168C1F34D
:102F00008811A1FB00010023FDF75CF92168C1F3E2
:102F10000141491C4900B0FBF1F010BD08380240E6
:102F20000024F40040787D012DE9F84F040075D0AD
:102F30002078DFF838A3C007AAF1040548D00AF1C9
:102F400004000168C1F38101012908D00068C0F3C1
:102F5000810002280AD1DAF80000400206D528686C
:102F6000800335D560680028E1D031E06068B0F5B5
:102F7000803F10D0B0F5A02F286810D020F480300A
:102F80002860286820F4802028606068A0B1FFF7DE
:102F900047FD06460CE0286840F48030F4E740F432
:102FA00080202860F7E7FFF73BFD801B642871D87D
:102FB00028688003F7D50BE0FFF732FD064604E0F2
:102FC000FFF72EFD801B6428F1D828688003F7D412
:102FD0002078DFF89C9280074FF0000B3DD5A34886
:102FE000001D016811F00C0F08D00068C0F38100CB
:102FF00002280AD1DAF80000400206D428688007C7
:1030000015D5E068012809D111E0E068B8B10120C8
:10301000C9F80000FFF704FD064605E022E1FFF7CE
:10302000FFFC801B0228C2D828688007F7D52868D3
:10303000216920F0F80040EAC10028600DE0C9F8DD
:1030400000B0FFF7EDFC064604E0FFF7E9FC801B4B
:1030500002281FD828688007F7D42078000722D5D7
:10306000824F84486169703771B101210160FFF7B7
:10307000D7FC064604E0FFF7D3FC801B022809D8E2
:1030800038688007F7D50EE0C0F800B0FFF7C8FC3D
:10309000064605E082E0FFF7C3FC801B02287DD8CE
:1030A00038688007F7D42078400765D56F484FF01F
:1030B00000083C300068C0000BD46C483C3001680C
:1030C00041F08051016000684FF0010800F080502D
:1030D0000090694F3868C0050FD4386840F480709C
:1030E0003860FFF79DFC064604E0FFF799FC801B63
:1030F000022853D83868C005F7D55C4FA0686C37F4
:1031000001280FD00528386810D020F00100386061
:10311000386820F004003860A068B0B1FFF780FC88
:1031200006460EE0386840F00100F4E740F0040085
:103130003860F7E7FFF774FC811B41F28830814269
:1031400063D838688007F5D50DE0FFF769FC0646BF
:1031500006E0FFF765FC811B41F28830814254D8BC
:1031600038688007F5D4B8F1000F05D03F483C30EF
:10317000016821F080510160A069B8B33B49091D85
:103180000968C1F38101022946D00228584606D0B9
:10319000C9F86000FFF744FC044639E035E04F46CB
:1031A000C9F86000FFF73CFC064604E0FFF738FC76
:1031B000801B022829D828688001F7D4D4E90701A8
:1031C0000843A16A2D4A490802EB0141626A41EABB
:1031D0008211084394F82C1040EA0161CAF80010EB
:1031E00001203866FFF71CFC044605E03CE0FFF7D1
:1031F00017FC001B022808D828688001F7D533E0A7
:10320000FFF70EFC001B022802D90320BDE8F88F4F
:1032100028688001F4D427E00128F7D0DAF800000C
:10322000E26900F4800191421CD1226A00F03F0162
:10323000914217D147F6C071626A0140B1EB821F1B
:1032400010D1A26A4FF0FF3300F4403103EB520279
:10325000B1EB024F06D194F82C1000F07060B0EB87
:10326000016F01D00120D1E70020CFE704380240F0
:1032700000004742800E4742007000400000FFFF00
:1032800070B5040009D0606A002540B12561656110
:10329000A56294F8510040B10CE0012070BD606857
:1032A000B0F5827FF4D0E561F2E784F85050204613
:1032B00000F044F8022084F851002068016821F0F1
:1032C00040010160A088218900F4827001F404416A
:1032D0000843A18901F400610843217C01F0020147
:1032E0000843217D01F001010843218B01F40071A5
:1032F0000843217F01F03801084394F8201001F0C1
:1033000080010843218D01F40051084321680860C1
:10331000A069042101EA104094F8241001F0100182
:103320000843216848602068C16921F40061C161D7
:103330006565012084F85100002070BD2DE9F04F33
:1033400087B0044614216846FCF774FF4A4A216896
:1033500000254A48022603274FF005084FF00809C8
:103360004FF0400B4FF4806A914240D143491431F1
:103370000A6842F480520A60096801F4805105919C
:10338000016841F001010160016801F0010105914E
:10339000016841F002010160006802AA00F0020029
:1033A00005908020CDE9000682E8A00169463448F6
:1033B000FFF748FA02AA694682E8A001CDE9009623
:1033C0003048FFF73FFA314E2F483060C6E9035AC4
:1033D0007561B561F561356278067562C6E9010B04
:1033E000304642E0A664B46307B0BDE8F08F284AD7
:1033F0009142F9D1214910310A6842F480420A60B1
:10340000096801F480410591016841F004010160FF
:10341000016801F004010591016841F002010160B9
:103420000068CDF8009000F00200CDE90480039719
:10343000CDE9016569461748FFF704FA02AAD146AB
:1034400082E8A001CDE900A669460E48FFF7FAF927
:103450000E4E1148603686E82108C6E903597561A9
:10346000B561F561356230467562FFF7E3F8002813
:10347000B8D0FEF7A5FCB5E7003001403038024077
:1034800000000240000402405864024038C301209A
:1034900000380040000802407060024070B51546D8
:1034A0000E46040003D094F8490010B107E0012053
:1034B00070BD002084F84800204600F01DF804F19B
:1034C00008012068FEF79CFC3146A2682068FEF7E0
:1034D000CBFCD4E901022946236BFEF773FCA168FB
:1034E000206850F8212042F0010240F821200120FC
:1034F00084F84900002070BDFFF750B910B5401E98
:10350000B0F1807F01D3012010BD4FF0E024606155
:103510000F21601701F0CEFC0020A0610720206180
:10352000002010BD7047704770B590F83C20012A0C
:1035300032D0012580F83C50022280F83D200268FC
:103540005368946823F070060B6833435360134B41
:1035500002689A4214D0B2F1804F11D0104B9A42B7
:103560000ED0104B9A420BD00F4B9A4208D00F4B03
:103570009A4205D00E4B9A4202D00E4B9A4204D189
:10358000496824F080031943916080F83D50002180
:1035900080F83C10084670BD022070BD000001405C
:1035A0000004004000080040000C004000040140FE
:1035B000004001400018004010B5040003D094F80A
:1035C0003D0010B107E0012010BD002084F83C0050
:1035D000204600F01FF8022084F83D00211D2068DD
:1035E00001F030F9012084F8460084F83E0084F8A8
:1035F0003F0084F8400084F8410084F8420084F8D9
:10360000430084F8440084F8450084F83D0000201D
:1036100010BD000030B587B0044614216846FCF7A1
:1036200009FE206800243349B0F1804F38D0324A77
:1036300090423DD1086840F002000860086800F040
:10364000020005902B481038016841F0010101602B
:10365000016801F001010591016841F00401016078
:103660000068022500F00400059040200090CDE99C
:10367000015469462148CDE90345FFF7E3F880206E
:103680000090CDE9015469461D48CDE90345FFF797
:10369000D9F8002211461D20FFF728FB1D2018E055
:1036A000086840F001000860086800F001001EE0B2
:1036B000144A904211D1086840F00400086008687C
:1036C000002200F00400059011461E20FFF70EFBBB
:1036D0001E20FFF7FDFA07B030BD0B4A9042FAD129
:1036E000086840F008000860086800F008000590CD
:1036F000F1E70000403802400004004000000240B2
:103700000008024000080040000C004090F83D1006
:10371000012901D001207047022180F83D10006886
:103720001149884214D0B0F1804F11D00F4988421E
:103730000ED00F4988420BD00E49884208D00E495E
:10374000884205D00D49884202D00D49884204D1F3
:10375000816801F00701062903D0016841F00101E9
:10376000016000207047000000000140000400409C
:1037700000080040000C00400004014000400140EF
:103780000018004070B5044690F83C000025012860
:1037900017D0012684F83C60022084F83D002068A0
:1037A000826822F0770222F47F4282600868502803
:1037B00038D00DDC20284FD005DC90B3102811D173
:1037C0004AE0022070BD302846D040280AD13BE0B4
:1037D00060282FD070280DD0B0F5805F03D0B0F5F1
:1037E000005F12D0012584F83D60002084F83C0081
:1037F000284670BDCB68D1E90121206801F093F81B
:103800002068816841F0770109E0CB68D1E90121A6
:10381000206801F088F82068816841F48041816067
:10382000E1E719E0CA684968206801F097F950217A
:10383000206806E0CA684968206801F0E1F9602163
:10384000206801F07AF8CEE7CA684968206801F07C
:1038500085F940212068F4E7226801461046F0E728
:1038600070B50546007F124C01280FD10021114888
:1038700000F0C0FA00EE100AB8EE400A84ED020A29
:10388000D4ED030A80EE801A84ED041A287F022802
:1038900009D10421074800F0ADFA00EE100AB8EE95
:1038A000400A84ED030ABDE8704000F0D7BE000076
:1038B0002CC0012040C401202DE9F041054690F8BC
:1038C0003C0000260C46012810D0012085F83C0061
:1038D00072B1042A1CD0082A2CD00C2A50D0012600
:1038E000002085F83C003046BDE8F0810220FBE76F
:1038F000D4E90012E368286801F042F92868816978
:1039000021F00C01816128688169A26811430FE0F0
:10391000D4E90012E368286801F084F92868816915
:1039200021F44061816128688169A26841EA02212D
:103930008161D5E72868D4E9002C277B016A21F44E
:1039400080710162C169036A21F0030141EA0C013F
:1039500021F0F00C39074FF420674CEA116123F491
:10396000206307EA02221A43C16102622868C16922
:1039700021F00C01C1612868C169A268114329E0E6
:103980002868D4E90021E768036A23F480530362BE
:10399000D0F81CC0036A2CF4407C4CEA012121F4CD
:1039A000704C4FF6FF7101EA07314FF4204741EAAE
:1039B0000C0123F4204307EA02321A43C161026278
:1039C0002868C16921F44061C1612868C169A268A1
:1039D00041EA0221C16183E710B5040003D094F8E5
:1039E0003D0010B107E0012010BD002084F83C002C
:1039F000204600F01EF8022084F83D00211D2068BA
:103A000000F020FF012084F8460084F83E0084F88E
:103A10003F0084F8400084F8410084F8420084F8B4
:103A2000430084F8440084F8450084F83D000020F9
:103A300010BD704730B50446002579B1042910D077
:103A4000082911D094F8410089B1042912D008291D
:103A500013D094F84520012814D111E094F83E00C9
:103A6000F2E794F83F00EFE794F84000ECE794F8B1
:103A70004220F0E794F84320EDE794F84420EAE789
:103A8000012A01D0012030BD022081B1042913D0C8
:103A9000082916D084F8410084F84500B1B1042902
:103AA00019D0082944D00C2947D001253EE084F8DC
:103AB0003E0084F84200F1E784F83F0084F84300B8
:103AC000ECE784F8400084F84400E7E72068C26827
:103AD00042F0020203E02068C26842F00402C260C1
:103AE0000122206800F012FF16492068884214D095
:103AF000B0F1804F11D0144988420ED0134988424A
:103B00000BD01349884208D01249884205D0124987
:103B1000884202D01149884204D1816801F007012E
:103B2000062903D0016841F001010160284630BD3B
:103B30002068C26842F00802D1E72068C26842F0FB
:103B40001002CCE7000001400004004000080040E3
:103B5000000C0040000401400040014000180040FB
:103B600070B50446006801694FF00005C943890734
:103B700015D4C168C943890711D4E91E0161012028
:103B80002077206880698007204602D0FFF768FE12
:103B900004E000F098F8204600F02AF92577206824
:103BA0000169C943490717D4C168C943490713D4F8
:103BB0006FF004010161022020772068806910F411
:103BC000407F204602D0FFF74BFE04E000F07BF878
:103BD000204600F00DF9257720680169C9430907DF
:103BE00016D4C168C943090712D46FF008010161F6
:103BF000042020772068C0698007204602D0FFF7A4
:103C00002FFE04E000F05FF8204600F0F1F8257781
:103C100020680169C943C90617D4C168C943C906E8
:103C200013D46FF010010161082020772068C0696B
:103C300010F4407F204602D0FFF712FE04E000F0AF
:103C400042F8204600F0D4F8257720680169C9437E
:103C5000C90708D1C168C943C90704D1891E0161D8
:103C6000204600F0C6F820680169C943090609D456
:103C7000C168C943090605D46FF08001016120467F
:103C8000FFF750FC20680169C943490609D4C1689F
:103C9000C943490605D46FF040010161204600F098
:103CA000E7F820680169C94389060BD4C168C94394
:103CB000890607D46FF0200101612046BDE87040FD
:103CC000FFF731BC70BD704770B5044690F83C00FA
:103CD00000260D4601280FD0012084F83C006AB16F
:103CE000042A1DD0082A2FD00C2A3FD001260020FC
:103CF00084F83C00304670BD022070BD206800F0A2
:103D000025FE2068816941F0080181612068816990
:103D100021F004018161206881692A69114311E061
:103D2000206800F043FE2068816941F400618161F0
:103D30002068816921F480618161206881692A6934
:103D400041EA02218161D2E7206800F065FE206827
:103D5000C16941F00801C1612068C16921F0040115
:103D6000C1612068C1692A69114311E0206800F02F
:103D700087FE2068C16941F40061C1612068C169A2
:103D800021F48061C1612068C1692A6941EA022188
:103D9000C161ACE710B5040003D094F83D0010B148
:103DA00007E0012010BD002084F83C00204600F010
:103DB0001EF8022084F83D00211D206800F042FD1D
:103DC000012084F8460084F83E0084F83F0084F81F
:103DD000400084F8410084F8420084F8430084F8ED
:103DE000440084F8450084F83D00002010BD704771
:103DF000704770470246002041B1042909D00829C4
:103E00000AD00C2901D11068006C70471068406B13
:103E100070471068806B70471068C06B704770B552
:103E2000044690F83C00012810D0012584F83C504D
:103E3000022084F83D00204600F04AFE002138B1FF
:103E400084F83D5084F83C10012070BD022070BD04
:103E50002068C26822F04002C2602068C26822F472
:103E60008042C26084F83D5084F83C10002070BD50
:103E7000704770B5040004D094F83D00002510B1DF
:103E800006E0012070BD84F83C50204600F022F886
:103E9000242084F83D002068C16821F40051C160ED
:103EA000204600F0DBFE2068016921F490410161A9
:103EB0002068416921F02A0141612068C16841F40C
:103EC0000051C1602564202084F83D0084F83E0044
:103ED000002070BD10B586B0044614216846FCF77A
:103EE000A9F914492068884221D1134800210268A9
:103EF00042F010020260006800F0100005900E48C9
:103F00001438026842F001020260006800F001000B
:103F100005904FF4C06000900220CDE9010103201C
:103F200003900720049069460448FEF78BFC06B016
:103F300010BD000000100140443802400000024063
:103F40002DE9F843044690F83D001F4615460E46FD
:103F500020284BD1C6B1BDB194F83C00012845D012
:103F6000012084F83C004FF00008C4F84080212074
:103F700084F83D00FEF754FDA5848146E584A068E1
:103F8000B0F5805F03D004E00120BDE8F88320692C
:103F900020B13546002684F83C800EE00025FAE783
:103FA0008021204600F0E0FEA0B9ADB115F8010B6C
:103FB00021684860E08C401EE084E08C4B464FF066
:103FC000000200970028EBD14FF04001204600F09E
:103FD000CBFE30B10320D8E736F8020BC0F308005F
:103FE000E6E7202084F83D000020CEE70220CCE761
:103FF000FEE72DE9F04128254FF6FF774FF4C8780A
:10400000EC000A263A463146284602F0EBFB0A3617
:10401000B6B2A642F6D32835ADB24646B542F0D385
:104020002825A0460A243A462946204602F0DAFB13
:104030000A34A4B2B442F6D32835ADB24545F1D323
:10404000BDE8F0817FB500241648009401940294E5
:104050001349039401604FF48031C0E901140461F5
:10406000047680F820400903C1620125C5614FF044
:10407000C061C460816280F830504561FEF758F835
:1040800008B1FDF79DFE0220CDE9000569460294C6
:104090000448FDF70DFF002801D0FDF791FE7FBD1C
:1040A00000200140C8C001201CB500241249009422
:1040B0001048019408600846FEF789F908B1FDF739
:1040C0007FFE1C20009002200190002269460A48D1
:1040D000FEF75AF908B1FDF773FE00941022694605
:1040E00005480194FEF750F9002801D0FDF768FE5D
:1040F0001CBD00000074004070C10120194808B5C3
:10410000016841F480010160016801F480010091BF
:10411000016841F4001101600068002200F4001001
:10412000009011460F20FEF7E1FD0F20FEF7D0FDB5
:10413000002211461020FEF7D9FD1020FEF7C8FD21
:10414000002211463820FEF7D1FD3820FEF7C0FDD1
:10415000002211463B20FEF7C9FDBDE808403B2088
:10416000FEF7B6BD3038024010B58EB01C2168464F
:10417000FCF760F81C2107A8FCF75CF81A484FF020
:10418000204110220160194941600621816000210F
:10419000C160C0E904128161C16113020162C0E91A
:1041A00009139302C0E90B134163816341640F203B
:1041B0003C230090CDE9010303AC112384E80E00F9
:1041C00009240691CDE907400AA8099480E80E0069
:1041D0000D9107AA69460448FFF760F9002801D04D
:1041E000FDF7EEFD0EB010BDE4C10120040100A0FA
:1041F0002DE9F04F87B014216846FCF71BF84448BE
:104200000024016841F004010160016801F004012B
:104210000591016841F080010160016801F08001B1
:104220000591016841F001010160016801F001019F
:104230000591016841F020010160016801F0200151
:104240000591016841F010010160016801F0100161
:104250000591016841F002010160016801F002016D
:104260000591016841F008010160016801F0080151
:104270000591016841F0400101600068DFF8949009
:1042800000F040004FF420450590002229464846A2
:10429000FEF7C0FBDFF880A04FF4FE760022314627
:1042A0005046FEF7B7FBDFF874B04FF450770022AA
:1042B00039465846FEF7AEFB4FF48078002241465F
:1042C0001748FEF7A7FB00950125CDE90154694683
:1042D00048460394FEF7B6FA0096CDE901546946C4
:1042E00050460394FEF7AEFA0097CDE901546946B3
:1042F00058460394FEF7A6FACDF80080CDE90154A4
:10430000694607480394FEF79DFA07B0BDE8F08FB1
:104310003038024000040240001802400008024009
:10432000000002400D4810B50B4901600C49416086
:1043300000214FF480428160C0E903124161816134
:10434000C1610162FEF772FB002803D0BDE8104096
:10435000FDF736BD10BD00000054004034C20120FE
:10436000A08601000F4810B50D4901604FF482711D
:10437000416000218160C1604FF400720161C0E9B9
:104380000512C1610162416281620A21C162FEF7C8
:1043900077FF002803D0BDE81040FDF711BD10BD28
:1043A0000030014088C201200F4810B50D4901605E
:1043B0004FF48271416000218160C1604FF400724E
:1043C0000161C0E90512C1610162416281620A2195
:1043D000C162FEF755FF002803D0BDE81040FDF78D
:1043E000EFBC10BD00380040E0C2012010B58EB017
:1043F00000240794089409940A940B941C2168469D
:104400000C94FBF717FF1E484FF0804101602821F4
:10441000C0E901140321C0E9031480218161FFF781
:10442000CBF808B1FDF7CCFC4FF48050079007A9FA
:104430001348FFF7A7F908B1FDF7C2FC1048FFF7D2
:10444000A9FC08B1FDF7BCFC5020CDE90B040BA979
:104450000B48FFF769F808B1FDF7B2FC6020009047
:104460000120CDE901040422694605480494FFF7C0
:104470002BFC002801D0FDF7A3FC0EB010BD0000FE
:10448000F8C3012010B590B000240B940C940D9447
:10449000142106A80E94FBF7CDFE2C48009401943D
:1044A0000294039404942849059401605321C0E9BF
:1044B000011444F61F61C0E9031480218161FFF7F4
:1044C0007BF808B1FDF77CFC4FF480500B900BA9F2
:1044D0001E48FFF757F908B1FDF772FC1B48FFF7BC
:1044E0007BFA08B1FDF76CFC042006905020CDE962
:1044F000070406A915480A94FFF791FC08B1FDF7D7
:104500005FFC0094694611480194FFF70DF808B16B
:10451000FDF756FC0120CDE902400494002202A9D7
:104520000A480594FFF7C8F908B1FDF749FC0220D5
:104530000290042202A90548FFF7BEF9002801D025
:10454000FDF73EFC10B010BD0004004040C4012047
:1045500010B586B000241748009401940294039487
:1045600004941349059401605221C0E9011440F2FA
:10457000E731C0E9031480218161FFF71DF808B11C
:10458000FDF71EFC4FF48050009069460948FFF784
:10459000F9F808B1FDF714FC049404A90548059442
:1045A000FEF7C2FF002801D0FDF70AFC06B010BDDF
:1045B0000008004088C4012010B586B000241748C8
:1045C0000094019402940394049413490594C0E95F
:1045D00000145321C0E90241802104618161FEF78A
:1045E000EBFF08B1FDF7ECFB4FF4805000906946FB
:1045F0000A48FFF7C7F808B1FDF7E2FB2020CDE934
:10460000040404A90548FEF78FFF002801D0FDF738
:10461000D7FB06B010BD0000000C0040D0C4012044
:104620000C4810B50A4901604FF4E13141600021A6
:1046300081600C22C160C0E904128161C161FFF791
:1046400018FC002803D0BDE81040FDF7B9BB10BD31
:104650000010014018C50120FEE7FEE72DE9FE43EA
:104660002E4DA888401C80B2A8800A2854D110245E
:104670002BA0CDE900404FF6E07640F29519234695
:104680005022A0210296484604F0FEFFD5ED020A12
:104690009FED261A81EE200A10EE100AFBF783FF29
:1046A00041EC100B22A153EC102B234800F0D6FB59
:1046B000DFF884804FF6FF77CDE90048102382228F
:1046C000B4214846029704F0DFFF1CA0CDE900406A
:1046D0001023502278210296484604F0D5FF95ED2C
:1046E000040ADFED180A20EE200A10EE100AFBF78C
:1046F0005AFF41EC100B14A153EC102B404600F074
:10470000ADFBCDE90048102350228C21484602978A
:1047100004F0BAFF0020A880BDE8FE832CC0012071
:1047200050574D5F4628487A293A000000247449C2
:1047300025302E3366487A00E0B90120447574793B
:104740003A0000000000C842252E326620252500D0
:104750007047704738B50A4C4FF6E070206040F261
:10476000CF1001F067FF2088002180B200904FF445
:10477000A0734FF4C872084602F03FF838BD00003D
:1047800000C00120FEF74ABA30B593B03021684628
:10479000FBF750FD14210CA8FBF74CFD1D4800252C
:1047A000016841F080510160006800F08050119074
:1047B0001948016841F4804101600068022400F456
:1047C00080401190012003901020049000940694E2
:1047D0000820CDE90750A820CDE9090404200B905A
:1047E0006846FEF7A1FB08B172B6FEE70CA90F20E0
:1047F00081E831004FF4A0500F904FF4805010909A
:1048000005210CA8FEF7A4FA002801D072B6FEE735
:1048100013B030BD403802400070004002480168CB
:1048200041F470010160704788ED00E00148FFF736
:1048300097B9000040C401200148FFF791B900007A
:1048400088C40120F0B50268254D264E264FDFF8BA
:104850009CC0274B4FF0804EA84209D0704507D02E
:10486000B04205D0B84203D0604501D0984203D190
:1048700022F070044A682243A8421BD0704519D028
:10488000B04217D0B84215D0604513D0984211D02D
:10489000184CA0420ED0184CA0420BD0174CA0428E
:1048A00008D0174CA04205D0164CA04202D0164C9E
:1048B000A04203D122F44074CA6822434C6922F01A
:1048C0008002224302608A68C2620A688262A84249
:1048D00001D0984201D10969016301214161F0BD14
:1048E000000001400004004000080040000C0040AF
:1048F00000040140004001400044014000480140E4
:1049000000180040001C00400020004010B501F0DD
:104910001F010123046A8B409C430462036A8A409E
:104920001343036210BD10B5846842EA032224F4E5
:104930007F440A432243826010BD826822F07002E5
:104940000A4342F00701816070470000F0B5026A37
:1049500022F001020262026A43688469114E24F067
:1049600073050C68104F2C4322F002058A682A4315
:10497000B04201D0B84205D122F00805CA682A43E6
:1049800022F00402B04201D0B84205D14D6923F4AF
:1049900040731D438B692B434360846149684163C5
:1049A0000262F0BD0000014000040140F0B5026A5F
:1049B00022F010020262026A436884690D6824F4DE
:1049C000E64444EA05248D6822F0200242EA0512FA
:1049D0000F4D104EA84201D0B04206D1CF6822F050
:1049E000800242EA071222F04002A84201D0B042FF
:1049F00007D14D6923F4406343EA85038D6943EA97
:104A0000850343608461496881630262F0BD0000F0
:104A10000000014000040140F0B5026A22F48072F7
:104A20000262026A4368C46922F4007224F07305CA
:104A30000C68124E2C438D6842EA05220E4DA842A6
:104A400001D0B04206D1CF6822F4006242EA0722C8
:104A500022F48062A84201D0B04207D14D6923F40C
:104A6000405343EA05138D6943EA05134360C4616B
:104A70004968C1630262F0BD0000014000040140CA
:104A800030B5026A22F480520262036A4268C46945
:104A90000D6824F4E64444EA05248D6823F40053A9
:104AA00043EA0533084DA84202D0084DA84204D17C
:104AB0004D6922F4804242EA85124260C46149682D
:104AC0000164036230BD00000000014000040140A9
:104AD00070B50268002493684D6823F070031D438D
:104AE0000B6825F007052B4393604A6812F00F0FFF
:104AF00031D11211082A2ED2DFE802F02E2E2E2EEE
:104B00000B2127040B69D1E902210068FFF70BFF95
:104B100022E00A68052A10D00268156A136A23F099
:104B20000103136202689369096923F0F00343EA01
:104B300001119161006805620EE0012070BD0A69F3
:104B40008968006800F00AF806E00A698968006868
:104B500000F056F800E00124204670BD10B5046A4C
:104B6000036A23F001030362836923F0F00343EA3D
:104B7000021324F00A020A438361026210BD00009E
:104B800070B5046A24F0010404628469056A154E54
:104B9000B04214D0B0F1804F11D0134EB0420ED0BD
:104BA000124EB0420BD0124EB04208D0114EB0425D
:104BB00005D0114EB04202D0104EB04203D124F0C5
:104BC0000304144301E044F001041A0724F0F00444
:104BD00044EA126225F00A0301F00A0119438261D6
:104BE000016270BD00000140000400400008004068
:104BF000000C00400004014000400140001800404B
:104C000010B5036A23F0100303628469036A24F475
:104C1000704444EA023223F0A00343EA01118261A6
:104C2000016210BD30B5046A24F010040462856985
:104C3000046A25F4407545EA022222F470454FF6D5
:104C4000FF7202EA033224F0A0032A43A02404EAFC
:104C5000011119438261016230BD000070B5044644
:104C600000680169E26821F4405111430161A168C3
:104C70002069E26901436069104301432068C2680A
:104C800049F20C639A430A43C26020684169A269F1
:104C900021F440711143416131492068884202D0BA
:104CA0003049884202D1FEF7FDF801E0FEF7EAF84C
:104CB000E2690023192164253226B2F5004F6268AB
:104CC00028D0A0FB0101930F9200FBF77BFA01466D
:104CD000B0FBF5F06FF01802504301EB800006EBDB
:104CE0000010B0FBF5F000F0F002B1FBF5F002EBC4
:104CF0000012B1FBF5F06FF01803584301EB800090
:104D000006EB0010B0FBF5F000F00F002168104436
:104D1000886070BDA0FB010192185B41FBF752FA5D
:104D20000146B0FBF5F00201B1FBF5F06FF018039E
:104D3000584301EB800006EBC000B0FBF5F000F03B
:104D4000F80002EB4002B1FBF5F0584301EB8000A4
:104D500006EBC000B0FBF5F000F00700D6E700005E
:104D600000100140001401402DE9F0411E46174695
:104D700088460446069D26E0681C24D025B1FDF730
:104D80004FFE801BA8421ED920680C3050E8001F3F
:104D900021F4D07140E80012002AF5D120681430C7
:104DA00050E8001F21F0010140E80012002AF5D16F
:104DB000202084F83D0084F83E00002084F83C0068
:104DC0000320BDE8F0812068016838EA010004D0C2
:104DD0000020B842D0D00020F3E70120F9E7FEE739
:104DE0002DE9F047134F0646802500221021384652
:104DF000FDF710FEDFF8409000244FF480782E423B
:104E000001D1002200E0012241464846FDF702FEA2
:104E1000012210213846FDF7FDFD6D08002210210A
:104E20003846FDF7F7FD641CE4B2082CE7D3BDE873
:104E3000F087000000180240000002400FB4054B4C
:104E400010B503A9044A029800F086FC10BC5DF876
:104E500014FB00001D66000860C001200FB4084B61
:104E600010B504A902AA039800F076FC044602A932
:104E7000002000F0F4FF204610BC5DF814FB000099
:104E80005F5E000803B401984100009850EAC12019
:104E900018BF04204A0D18BF40F0010040F2FF7215
:104EA000B2EB515F08BF40F00200012808BF0520A7
:104EB00002B070470907090E002804DB00F1E0206A
:104EC00080F80014704700F00F0000F1E02080F837
:104ED000141D70470000000070B59B482DED020BBB
:104EE0002DED068B079D25F00044A04218DC974865
:104EF000844202DC0AD1069840B19DED060BBDEC60
:104F0000068B02B0BDE8704000F028BB002DCCBF7E
:104F10009FED8F0B9FED900BBDEC068B02B070BD2B
:104F20008F48A04215DD8F48A042D8BF4FF0FF3414
:104F300058DD9DED060B51EC100BFFF7A3FF042885
:104F400008BF00F021FB9DED060BBDEC068B02B007
:104F500070BD9DED060B51EC100B00F08DFFCDE9FF
:104F6000060181489FED828BA0423CDD8248A04231
:104F70001FDD00249FED82AB9DED060B53EC1A2B39
:104F800051EC100BFBF761F99DED060B41EC190B91
:104F900053EC1A2B51EC100BFBF7FEF953EC182BCA
:104FA000FBF7F4F953EC192BFBF768FACDE906018E
:104FB00049E09DED060B012453EC182B51EC100B2E
:104FC000FBF743F99DED060B41EC190B53EC182B45
:104FD00051EC100BFBF7DAF953EC192BFBF74EFAF7
:104FE000CDE906012FE06848A0421FDD02249FEDB5
:104FF000689B9DED060B53EC192B51EC100BFBF746
:10500000CBF953EC182BFBF720F99DED060B41EC87
:10501000180B53EC192B51EC100BFBF7B7F953ECB1
:10502000182BFBF72BFACDE906010CE09DED060BE2
:10503000032453EC102B9FED580B51EC100BFBF796
:105040001DFACDE906019DED060B53EC102B51EC3A
:10505000100BFBF7A1F941EC180B53EC182BFBF7E5
:105060009BF941EC190B4E480621B0EE490AF0EECF
:10507000690A784400F0F6F953EC182B51EC100B48
:10508000FBF78AF941EC180B4648B0EE490AF0EEFE
:10509000690A0521784400F0E5F953EC192B51EC2D
:1050A000100BFBF779F941EC100B51EC180B53EC9A
:1050B000102B002C0EDAFBF7C8F89DED061B53EC05
:1050C000112BFBF769F99DED061B53EC112BFBF738
:1050D00060F935E0FBF7B9F89DED061B53EC112B99
:1050E000FBF75AF941EC100B2F48784400EBC40051
:1050F00090ED001B51EC100B53EC112BFBF746F914
:105100009DED061B53EC112BFBF740F941EC100B06
:105110002648784400EBC40090ED001B51EC100BC6
:1051200053EC112BFBF735F941EC100B002DA2BF0E
:10513000BDEC068B02B070BD51EC100B81F000414C
:1051400041EC100B01E70000000010440000F07F6C
:10515000182D4454FB21F93F182D4454FB21F9BF6D
:105160000000DC3F0000203E0000F33F0000000094
:10517000000000000000F03F0000E63F00000000DB
:10518000000000000000004000800340000000001C
:10519000000000000000F83F000000000000F0BF29
:1051A000AA78000060780000EA770000A27700008B
:1051B00070B56F4E2DED040B2DED048B82B0DDF834
:1051C00024C0DDE907235C422CF000411C4341EA86
:1051D000D474069D22F00040B44205D86C422C43A2
:1051E00040EAD474B4420BD99DED081B9DED060B2B
:1051F00002B0BDEC048B04B0BDE8704000F0B8B95B
:10520000ACF14054A4F17F641C430BD0022404EAA7
:10521000AC7444EAD27405439FED578B9FED582B35
:1052200007D015E09DED060B51EC100B00F01CFEB5
:1052300042E0002C11BF012C9DED060B02B0BDEC2D
:10524000048B04BF04B070BD022C38D0032C3BD0BB
:105250000B439FED4D1B9FED4E0B0AD0B14218D171
:10526000B04209D121F0804120F08040099107909F
:105270000FE0002A15DA10E0474B7B44002C08BFF2
:1052800093ED000B0DD0012C10D0022C17D0032C65
:105290001AD0B0421DD1002A03DAB0EE410AF0EE76
:1052A000610A02B0BDEC048B04B070BD93ED000B3D
:1052B00051EC100B81F0004141EC100BF1E7B0EE26
:1052C000480AF0EE680AECE7B0EE420AF0EE620A35
:1052D000E7E7401A00159FED329B3C28C8BF8DEDD3
:1052E000000B17DCBCF1000FBCBF10F13C0F8DEDC3
:1052F000009B0FDB9DED080B53EC102B9DED060B77
:1053000051EC100BFBF7BAF800F0B6FD00F0ACFD65
:10531000CDE90001B4B1012C10D0022C9FED220B7D
:1053200053EC102B9DED000B51EC100B19D0FBF73B
:105330002DF853EC182BFBF729F8BDE7019880F006
:10534000004001909DED000B53EC192B51EC100B1C
:10535000FBF73CF904BF022000F036F99DED000B8D
:105360009FE7FBF713F853EC182BFBF712F8A3E7B2
:105370000000F07F00000000182D4454FB2109407C
:10538000182D4454FB2109C0182D4454FB21F9BFAA
:10539000182D4454FB21F93FD27600000000000094
:1053A0000000000000000000075C143326A6A13CAA
:1053B00000B52DED048BB0EE409AF0EE609A83B00C
:1053C00051EC190BFBF711FA41EC180B18EE100A0F
:1053D00018EE901A8DED008B002818BF01200843AD
:1053E00020F00040C0F17F6000F1E040C00F14D019
:1053F00019EE101A19EE900A8DED009B002918BFC6
:105400000121084320F00040C0F17F6000F1E0403E
:10541000C00F04BF012000F0D7F8B0EE480A03B077
:10542000F0EE680ABDEC048B00BD10B52DED028BCB
:10543000B1EEC08A18EE100A20F00040C0F1FF4023
:10544000C00F0AD010EE100A20F00040C0F1FF405B
:10545000C00F04BF012000F0B7F8B0EE480ABDEC61
:10546000028B10BD70B504462DED028B4D1E00EB76
:10547000C500B0EE408AF0EE608A90ED000B35F08A
:10548000060017D053EC182B51EC100BFAF784FFE1
:1054900041EC100B6D1E04EBC50090ED001B51ECB0
:1054A000100B53EC112BFAF7D0FE41EC100B35F03A
:1054B0000600E7D1022D36D0042D1CD0062D1CBFCE
:1054C000BDEC028B70BD53EC182B51EC100BFAF7AE
:1054D00063FF94ED0A1B53EC112BFAF7B6FE53EC65
:1054E000182BFAF759FF94ED081B53EC112BFAF720
:1054F000ACFE41EC100B53EC182B51EC100BFAF7EF
:105500004BFF94ED061B53EC112BFAF79EFE53EC68
:10551000182BFAF741FF94ED040B53EC102BFAF71C
:1055200094FE41EC100B53EC182B51EC100BFAF7D6
:1055300033FF94ED021B53EC112BFAF786FE53EC6C
:10554000182BFAF729FF94ED001B53EC112BFAF7F7
:105550007CFEBDEC028B41EC100B70BD10B553EC22
:10556000102B51EC100BFAF770FE41EC100B10BD34
:1055700010B553EC112B51EC100BFAF766FE41EC11
:10558000100B10BD000000009FED050B10B553EC93
:10559000102B51EC100BFAF7FFFE41EC100B10BD75
:1055A000000000000000001002E008C8121F08C13F
:1055B000002AFAD170477047002001E001C1121F94
:1055C000002AFBD1704700000149086070470000C5
:1055D00064C001202DE9FF5F82B00021DDE90430C5
:1055E000020DDDF840B0034318D044F61050A2F28B
:1055F000FF3242431514119801281FD0A5EB0B0070
:10560000401C5FEA000A4FF000064E4FDFF8389169
:10561000B046504615D5CAF1000413E01198012494
:105620004AA3012801D16FEA0B010298119AC0E93F
:105630000031C0E9024206B0BDE8F09FCBF10000A6
:10564000DFE704460021404A491842EB0450CDE907
:10565000001012E0E00707D032463B46404649467C
:10566000FAF79AFE8046894632463B46104619466E
:10567000FAF792FE06460F466410002CEAD1DDE9E7
:105680000401DDE90023BAF1000F06DAFAF784FE1F
:1056900042464B46FAF780FE05E0FAF7EFFE424637
:1056A0004B46FAF7EBFE04460E460022284BFBF76A
:1056B00005F903D84FF0FF30014607E00022254BE3
:1056C00020463146FAF7C1FDFBF7E0F8102409E067
:1056D000002C0ADB0A220023FAF774FD039B303208
:1056E0001A55641E50EA0102F2D1641C039AC4F1F7
:1056F00011031444119A012A03D0012208430DD149
:105700000AE0084304D000204FF0110B119072E71B
:10571000A3EB0B056D1E0DE05B4504DD4FF00002B1
:1057200005F1010504E003DA4FF00002A5F10105DF
:10573000002AECD002981199C0E90231C0E9004575
:1057400079E70000000014400000F03F3000000046
:105750000000F0430000E03F2DE9FF4F95B09A466E
:10576000884606460025EEE1252877D10024274605
:10577000F94A0121039400E0044316F8013F203B5D
:1057800001FA03F01042F7D130782A2811D06FF0D7
:105790002F033078A0F13002092A16D8039A44F07A
:1057A000020402EB820203EB42021044761C0390D7
:1057B000EFE758F8042B0392002A03DA504244F42E
:1057C0000054039044F00204761C30782E2816D141
:1057D00016F8010F44F004042A280DD06FF02F02B0
:1057E0003078A0F13003092B09D807EB870302EBCF
:1057F0004303C718761CF3E758F8047B761C30780F
:105800006C280FD006DC4C2817D068280DD06A28E9
:1058100014D104E0742810D07A280FD10DE044F49C
:1058200000140AE044F4801401E044F44014727857
:10583000824202D104F58014761C761C30786628EA
:105840000BD013DC582877D009DC002875D0452808
:10585000F6D04628F4D047281AD193E118E06328FF
:1058600035D0642879D0652812D18BE1702873D0A7
:1058700008DC6728F1D069286FD06E280DD06F281A
:1058800006D1ACE073282CD0752874D0782853D07A
:105890005246179990476D1C54E1C4F302500228F8
:1058A00009D003280DD0D8F8001004280DD00D60C1
:1058B00008F1040846E1D8F80010EA17C1E90052DF
:1058C000F6E7D8F800100D80F2E70D70F0E718F851
:1058D000041B8DF8001000208DF80100EB4601201C
:1058E00003E058F804BB4FF0FF3061074FF00001B0
:1058F00002D40DE009F101018946B9420FDA814570
:10590000F8DB1BF809100029F4D108E009F10101C6
:1059100089468142FADB1BF809100029F6D1039869
:105920005346A0EB090721463846179A00F080FA43
:10593000284400EB090507E044E008E10DE01BF80E
:10594000010B524617999047B9F10109F7D2534616
:1059500021463846179AF2E039E00A21C4F3025290
:105960004FF0000B0091022A06D058F8040BC11723
:10597000032A09D00AE023E008F1070020F007021B
:10598000F2E80201904605E000B2C117042A01D1F5
:1059900040B2C117002906DA0A460021404261EBF5
:1059A00002012D2202E0220504D52B228DF80420CD
:1059B000012203E0E20701D02022F7E7914657E0F9
:1059C0000A2100E010214FF0000B00910BE01021A4
:1059D0004FF0000B44F004040827009103E0082076
:1059E0004FF0000B0090C4F30252022A05D058F881
:1059F000040B0021032A08D008E008F1070020F07A
:105A00000702F2E80201904603E080B2042A00D1C6
:105A1000C0B24FF0000922072AD53278702A07D089
:105A2000DDF800C08CF0100C5CEA0B0C05D00EE029
:105A300040228DF80420012208E050EA010306D03C
:105A400030238DF804308DF8052002229146009B0A
:105A500083F0080353EA0B030AD150EA010201D193
:105A6000620705D530228DF804204FF001097F1E12
:105A70003278582A04D039A20C920CAA02920BE078
:105A80003BA2F9E75B46009AFAF79CFB0C9B9B5CF8
:105A9000029A521E0292137050EA0102F2D1029849
:105AA00004A9081A00F1200B600702D524F4803401
:105AB00000E001275F4502DDA7EB0B0000E00020BE
:105AC00000EB0B01009003984944401A0390E00357
:105AD00006D453462146179A039800F0A9F90544C5
